:1000000065C0000095C00000DBC0000002C1000018
:10001000A3C0000078C0000076C0000074C00000DB
:1000200072C0000070C000006EC000006CC0000014
:100030006AC0000068C0000066C0000064C0000024
:1000400062C0000060C000005EC000005CC0000034
:100050005AC0000098C10000D8C100005EC1000075
:1000600052C0000050C000004EC000004CC0000054
:100070004AC0000048C0000046C0000044C0000064
:1000800042C0000040C000003EC000003CC0000074
:100090003AC0000038C0000036C0000034C0000084
:1000A00032C0000030C000002EC000002CC0000094
:1000B0002AC0000028C0000026C0000024C00000A4
:1000C00022C0000020C000001EC0000011241FBE7E
:1000D000CFEFD1E2DEBFCDBF12E0A0E0B2E0EAE7B1
:1000E000F4E000E00BBF02C007900D92A630B1070C
:1000F000D9F722E0A6E0B2E001C01D92A830B20715
:10010000E1F702D0B8C17CCF1AB88FEF84B98093E1
:1001100069008FE08DBB13BC87E080936E0085E59E
:1001200087BD8AEA88BD85E085BD14BC7894FFCF81
:100130001F920F920FB60F9211248F939F9390915D
:10014000070281E08927809307029F918F910F908A
:100150000FBE0F901F9018951F920F920FB60F921F
:1001600011248F939F939091060281E089278093B9
:100170000602882349F081E085B98EEF87BD82E0D1
:1001800084BD8FEF88BD06C015B885E587BD8AEAB6
:1001900088BD14BC9F918F910F900FBE0F901F9040
:1001A0001895FC01208131812F5F3F4F31832083DF
:1001B0002430310521F481E090E09183808308951B
:1001C0001F920F920FB60F9211240BB60F922F931E
:1001D0003F934F935F936F937F938F939F93AF93CF
:1001E000BF93EF93FF9384E092E0DBDFFF91EF9109
:1001F000BF91AF919F918F917F916F915F914F913F
:100200003F912F910F900BBE0F900FBE0F901F903C
:1002100018951F920F920FB60F9211240BB60F92E2
:100220002F933F934F935F936F937F938F939F93FE
:10023000AF93BF93EF93FF9380E092E0B2DFFF9123
:10024000EF91BF91AF919F918F917F916F915F914E
:100250004F913F912F910F900BBE0F900FBE0F90BB
:100260001F901895FC018081918181309105A1F446
:10027000FB01808191818130910519F481E085B97C
:1002800008958230910519F482E085B908950397A5
:1002900071F584E085B908958230910599F4FB01E8
:1002A000808191818130910519F487E085B90895A5
:1002B0008230910511F415B808950397C1F482E0D6
:1002C00085B90895039799F4FB018081918181306C
:1002D000910519F487E085B908958230910519F4E4
:1002E00087E085B90895039711F487E085B90895EB
:1002F000CF93DF93FC019081992359F080910602FE
:10030000811107C0EA01CB01BA01ACDFCE0149DFA0
:1003100001C015B8DF91CF9108951F920F920FB6CB
:100320000F9211240BB60F922F933F934F935F932D
:100330006F937F938F939F93AF93BF93EF93FF93AD
:1003400080910002909101020197029748F420E009
:1003500032E042E052E064E072E087E092E0C8DF21
:10036000FF91EF91BF91AF919F918F917F916F918D
:100370005F914F913F912F910F900BBE0F900FBE49
:100380000F901F9018951F920F920FB60F92112485
:100390000BB60F922F933F934F935F936F937F937F
:1003A0008F939F93AF93BF93EF93FF938091060238
:1003B000882349F085B1880F85B985B1883091F4DB
:1003C00081E085B90FC080910002909101020197F0
:1003D00049F420E032E042E052E064E072E087E07D
:1003E00092E086DFFF91EF91BF91AF919F918F9146
:1003F0007F916F915F914F913F912F910F900BBE25
:100400000F900FBE0F901F9018951F920F920FB66E
:100410000F9211240BB60F922F933F934F935F933C
:100420006F937F938F939F93AF93BF93EF93FF93BC
:1004300080910002909101020197039748F420E017
:1004400032E042E052E064E072E087E092E050DFA8
:10045000FF91EF91BF91AF919F918F917F916F919C
:100460005F914F913F912F910F900BBE0F900FBE58
:0A0470000F901F901895F894FFCF2D
:06047A0001000100010079
:00000001FF
