:1000000065C0000081C00000C5C00000ECC0000059
:100010007AC0000078C0000076C0000074C0000004
:1000200072C0000070C000006EC000006CC0000014
:100030006AC0000068C0000066C0000064C0000024
:1000400062C0000060C000005EC000005CC0000034
:100050005AC0000058C0000056C0000054C0000044
:1000600052C0000050C000004EC000004CC0000054
:100070004AC0000048C0000046C0000044C0000064
:1000800042C0000040C000003EC000003CC0000074
:100090003AC0000038C0000036C0000034C0000084
:1000A00032C0000030C000002EC000002CC0000094
:1000B0002AC0000028C0000026C0000024C00000A4
:1000C00022C0000020C000001EC0000011241FBE7E
:1000D000CFEFD1E2DEBFCDBF12E0A0E0B2E0ECE1B5
:1000E000F3E000E00BBF02C007900D92A630B1070D
:1000F000D9F722E0A6E0B2E001C01D92A730B20716
:10010000E1F7F8D009C17CCF1F920F920FB60F9282
:1001100011248F939F939091060281E08927809309
:1001200006029F918F910F900FBE0F901F90189510
:10013000FC01808191818130910551F4FFE728E332
:1001400081E0F15020408040E1F700C000000895B8
:100150008230910539F4EFE4F3EC3197F1F700C008
:1001600000000895039731F487EA91E60197F1F7CB
:1001700000C000000895FC01208131812F5F3F4FB6
:10018000318320832430310521F481E090E0918394
:10019000808308951F920F920FB60F9211240BB611
:1001A0000F922F933F934F935F936F937F938F9310
:1001B0009F93AF93BF93EF93FF9384E092E0DBDFD5
:1001C000FF91EF91BF91AF919F918F917F916F912F
:1001D0005F914F913F912F910F900BBE0F900FBEEB
:1001E0000F901F9018951F920F920FB60F92112427
:1001F0000BB60F922F933F934F935F936F937F9321
:100200008F939F93AF93BF93EF93FF9380E092E020
:10021000B2DFFF91EF91BF91AF919F918F917F914D
:100220006F915F914F913F912F910F900BBE0F9067
:100230000FBE0F901F901895FC0180819181813035
:100240009105A1F4FB01808191818130910519F420
:1002500081E085B908958230910519F482E085B96D
:100260000895039771F584E085B90895823091056A
:1002700099F4FB01808191818130910519F487E027
:1002800085B908958230910511F415B80895039742
:10029000C1F482E085B90895039799F4FB01808148
:1002A00091818130910519F487E085B908958230F4
:1002B000910519F487E085B90895039711F487E053
:1002C00085B908950F931F93CF93DF93FC0190811D
:1002D000992351F08901EA01CB01BA01ADDFC801D0
:1002E00027DFCE0148DF01C015B8DF91CF911F9104
:1002F0000F9108951AB887E084B99FE3909369003D
:100300008DBB789420E032E042E052E064E072E09D
:0C03100086E092E0D7DFF6CFF894FFCF34
:06031C00010001000100D8
:00000001FF
