S00C00004C6162312E73726563D8
S113000065C000006BC0000069C0000067C000004C
S113001065C0000063C0000061C000005FC0000054
S11300205DC000005BC0000059C0000057C0000064
S113003055C0000053C0000051C000004FC0000074
S11300404DC000004BC0000049C0000047C0000084
S113005045C0000043C0000041C000003FC0000094
S11300603DC000003BC0000039C0000037C00000A4
S113007035C0000033C0000031C000002FC00000B4
S11300802DC000002BC0000029C0000027C00000C4
S113009025C0000023C0000021C000001FC00000D4
S11300A01DC000001BC0000019C0000017C00000E4
S11300B015C0000013C0000011C000000FC00000F4
S11300C00DC000000BC0000009C0000011241FBEB9
S11300D0CFEFD1E2DEBFCDBF20D033C091CF189B8C
S11300E00BC0FC012081211109C021E02083FB0108
S11300F08081282720830895FC0110820895CF93DE
S1130100DF93EB01ECDF8881882319F081E08BB960
S113011001C01BB8DF91CF910895CF93DF9300D036
S1130120CDB7DEB781E08AB914B815B887E08BB9CA
S113013019821A82BE016F5F7F4FCE010296DFDF04
S1090140F9CFF894FFCF93
S9030000FC
