:1000000065C000006BC0000069C0000067C0000050
:1000100065C0000063C0000061C000005FC0000058
:100020005DC000005BC0000059C0000057C0000068
:1000300055C0000053C0000051C000004FC0000078
:100040004DC000004BC0000049C0000047C0000088
:1000500045C0000043C0000041C000003FC0000098
:100060003DC000003BC0000039C0000037C00000A8
:1000700035C0000033C0000031C000002FC00000B8
:100080002DC000002BC0000029C0000027C00000C8
:1000900025C0000023C0000021C000001FC00000D8
:1000A0001DC000001BC0000019C0000017C00000E8
:1000B00015C0000013C0000011C000000FC00000F8
:1000C0000DC000000BC0000009C0000011241FBEBD
:1000D000CFEFD1E2DEBFCDBFD3D00CC191CFFC01B9
:1000E000808191818130910551F4FFE728E381E01F
:1000F000F15020408040E1F700C0000008958230B8
:10010000910539F4EFE4F3EC3197F1F700C000000A
:100110000895039731F487EA91E60197F1F700C05B
:1001200000000895189B0BC0FC012081211109C01B
:1001300021E02083FB018081282720830895FC0192
:1001400010820895EFCF0895FC01208131812F5F47
:100150003F4F318320832430310521F481E090E04A
:10016000918380830895199B09C0FC01208121118E
:1001700007C081E08083CB01E7CF0895FC011082A6
:100180000895F1CF08951A9B09C0FC012081211127
:1001900007C081E08083CB01D7CF0895FC01108296
:1001A0000895F1CF0895FC01208131812F5F3F4FE9
:1001B000318320832430310521F481E090E0918364
:1001C00080830895FC018081918181309105A1F4A3
:1001D000FB01808191818130910519F481E08BB917
:1001E00008958230910519F482E08BB90895039740
:1001F00071F584E08BB908958230910599F4FB0183
:10020000808191818130910519F487E08BB908953F
:100210008230910511F41BB808950397C1F482E070
:100220008BB90895039799F4FB0180819181813006
:10023000910519F487E08BB908958230910519F47E
:1002400087E08BB90895039711F487E08BB908957F
:100250000F931F93CF93DF93FC019081992351F06B
:100260008901EA01CB01BA01ADDFC80138DFCE0157
:100270009ADF01C01BB8DF91CF911F910F910895B4
:10028000CF93DF93CDB7DEB72A970FB6F894DEBFD2
:100290000FBECDBF87E08AB914B815B88BB91982E3
:1002A0001A821B821C8281E090E09E838D83988756
:1002B0008F839A878987BE016F5F7F4FCE01029639
:1002C00041DFBE016B5F7F4FCE0103965ADFBE0157
:1002D000675F7F4FCE01049664DF9E01275F3F4F2B
:1002E000AE01495F5F4FBE016B5F7F4FCE0101964C
:0802F000AFDFE1CFF894FFCF6E
:00000001FF
