S00C00004C6162312E73726563D8
S113000065C000006BC0000069C0000067C000004C
S113001065C0000063C0000061C000005FC0000054
S11300205DC000005BC0000059C0000057C0000064
S113003055C0000053C0000051C000004FC0000074
S11300404DC000004BC0000049C0000047C0000084
S113005045C0000043C0000041C000003FC0000094
S11300603DC000003BC0000039C0000037C00000A4
S113007035C0000033C0000031C000002FC00000B4
S11300802DC000002BC0000029C0000027C00000C4
S113009025C0000023C0000021C000001FC00000D4
S11300A01DC000001BC0000019C0000017C00000E4
S11300B015C0000013C0000011C000000FC00000F4
S11300C00DC000000BC0000009C0000011241FBEB9
S11300D0CFEFD1E2DEBFCDBFB0D0D8C091CF189B57
S11300E00BC0FC012081211109C021E02083FB0108
S11300F08081282720830895FC0110820895FC0143
S1130100208131812F5F3F4F31832083243031059B
S113011021F481E090E0918380830895199B09C0C4
S1130120FC012081211107C081E08083CB01E7CF4E
S11301300895FC0110820895FC01208131812F5F14
S11301403F4F318320832430310521F481E090E056
S1130150918380830895FC01808191818130910590
S1130160A1F4FB01808191818130910519F481E032
S11301708BB908958230910519F482E08BB9089502
S1130180039771F584E08BB908958230910599F451
S1130190FB01808191818130910519F487E08BB94D
S11301A008958230910511F41BB808950397C1F4A2
S11301B082E08BB90895039799F4FB0180819181C2
S11301C08130910519F487E08BB908958230910547
S11301D019F487E08BB90895039711F487E08BB97C
S11301E00895CF92DF92EF92FF920F931F93CF93D4
S11301F0DF93EB016A01790172DFA701B601C8013F
S11302008DDF8881882379F0B701C601A4DF2FE34D
S11302108DE093E0215080409040E1F700C0000061
S1130220C7018ADF01C01BB8DF91CF911F910F91E5
S1130230FF90EF90DF90CF900895CF93DF93CDB7E9
S1130240DEB727970FB6F894DEBF0FBECDBF81E0AF
S11302508AB914B815B887E08BB919821A821B823F
S113026081E090E09D838C839F838E838E010D5F5C
S11302701F4F9E012A5F3F4FAE014C5F5F4FBE018F
S11302806F5F7F4FCE010296ACDFF0CFF894FFCFC3
S9030000FC
