S00C00004C6162312E73726563D8
S113000065C0000093C00000DBC0000014C1000004
S11300107AC0000078C0000076C0000074C0000000
S113002072C0000070C000006EC000006CC0000010
S11300306AC0000068C0000066C0000064C0000020
S113004062C0000060C000005EC000005CC0000030
S11300505AC0000058C0000056C0000054C0000040
S113006052C0000050C000004EC000004CC0000050
S11300704AC0000048C0000046C0000044C0000060
S113008042C0000040C000003EC000003CC0000070
S11300903AC0000038C0000036C0000034C0000080
S11300A032C0000030C000002EC000002CC0000090
S11300B02AC0000028C0000026C0000024C00000A0
S11300C022C0000020C000001EC0000011241FBE7A
S11300D0CFEFD1E2DEBFCDBF12E0A0E0B2E0E8E7AF
S11300E0F3E000E00BBF02C007900D92A630B10709
S11300F0D9F722E0A6E0B2E001C01D92A930B20710
S1130100E1F72AD137C17CCF189B0BC0FC012081B9
S1130110211109C021E02083FB018081282720834D
S11301200895FC0110820895EFCF08951F920F9255
S11301300FB60F9211240BB60F922F933F934F9348
S11301405F936F937F938F939F93AF93BF93EF933B
S1130150FF9368E072E087E092E0E6DFFF91EF91C1
S1130160BF91AF919F918F917F916F915F914F91CB
S11301703F912F910F900BBE0F900FBE0F901F90C9
S11301801895FC01208131812F5F3F4F31832083FB
S11301902430310521F481E090E091838083089537
S11301A0199B09C0FC012081211107C081E08083D3
S11301B0CB01E7CF0895FC0110820895F1CF089593
S11301C01F920F920FB60F9211240BB60F922F931A
S11301D03F934F935F936F937F938F939F93AF93CB
S11301E0BF93EF93FF9364E072E087E092E0E6DF71
S11301F0FF91EF91BF91AF919F918F917F916F91FB
S11302005F914F913F912F910F900BBE0F900FBEB6
S11302100F901F9018951A9B09C0FC012081211191
S113022007C081E08083CB01ACCF0895FC0110822C
S11302300895F1CF08951F920F920FB60F921124D3
S11302400BB60F922F933F934F935F936F937F93CC
S11302508F939F93AF93BF93EF93FF9360E072E00C
S113026086E092E0E6DFFF91EF91BF91AF919F911D
S11302708F917F916F915F914F913F912F910F904B
S11302800BBE0F900FBE0F901F901895FC0120819C
S113029031812F5F3F4F318320832430310521F496
S11302A081E090E0918380830895FC0180819181B5
S11302B081309105A1F4FB01808191818130910508
S11302C019F481E085B908958230910519F482E02A
S11302D085B90895039771F584E085B9089582304E
S11302E0910599F4FB01808191818130910519F484
S11302F087E085B908958230910511F415B8089501
S11303000397C1F482E085B90895039799F4FB013A
S1130310808191818130910519F487E085B9089530
S11303208230910519F487E085B90895039711F493
S113033087E085B90895CF93DF93FC0190819923D9
S113034039F0EA01CB01BA01B0DFCE019FDF01C071
S113035015B8DF91CF9108951AB887E084B97894DD
S113036020E032E042E052E064E072E088E092E0B3
S10B0370E2DFF6CFF894FFCFA1
S109037801000100010078
S9030000FC
